{
  "transactions": [
    {
      "hash": "0x4067d64d237439299a4256a933f7c0a20dfdc5009c38166c4ec8806bf29479f4",
      "transactionType": "CREATE",
      "contractName": "Attacker",
      "contractAddress": "0x6f10b8a762cb75c5811653e311dc735ab6ed1716",
      "function": null,
      "arguments": null,
      "transaction": {
        "from": "0x6fef5e47148e965c52dabf9086dfa41e886dd541",
        "to": null,
        "gas": "0x2534b",
        "value": "0x0",
        "input": "0x6080604052348015600e575f5ffd5b506101278061001c5f395ff3fe6080604052348015600e575f5ffd5b50600436106026575f3560e01c80633beb26c414602a575b5f5ffd5b60406004803603810190603c919060cb565b6042565b005b736fef5e47148e965c52dabf9086dfa41e886dd54160025f6101000a81548173ffffffffffffffffffffffffffffffffffffffff021916908373ffffffffffffffffffffffffffffffffffffffff16021790555050565b5f5ffd5b5f819050919050565b60ad81609d565b811460b6575f5ffd5b50565b5f8135905060c58160a6565b92915050565b5f6020828403121560dd5760dc6099565b5b5f60e88482850160b9565b9150509291505056fea2646970667358221220e841460b1601e1990066e3c5f1368dbb570b7f1977c729dae80e495c1627b9eb64736f6c63430008230033",
        "nonce": "0x65",
        "chainId": "0xaa36a7"
      },
      "additionalContracts": [],
      "isFixedGasLimit": false
    },
    {
      "hash": "0xbf1f14d82f3aabc9db35df00d9c69245fa896312c5ec2bce69ce039689f41b4c",
      "transactionType": "CALL",
      "contractName": null,
      "contractAddress": "0x4fe84c095c5ec45ab751fc7e39019a7c3d0b3827",
      "function": "setFirstTime(uint256)",
      "arguments": [
        "634070873103710165381276445997786060918958659350"
      ],
      "transaction": {
        "from": "0x6fef5e47148e965c52dabf9086dfa41e886dd541",
        "to": "0x4fe84c095c5ec45ab751fc7e39019a7c3d0b3827",
        "gas": "0xa1d9",
        "value": "0x0",
        "input": "0xf1e026200000000000000000000000006f10b8a762cb75c5811653e311dc735ab6ed1716",
        "nonce": "0x66",
        "chainId": "0xaa36a7"
      },
      "additionalContracts": [],
      "isFixedGasLimit": false
    },
    {
      "hash": "0x29e76ce1562b56ed7efefa010de4c24175b58ab550a604239ef0800630fd8667",
      "transactionType": "CALL",
      "contractName": null,
      "contractAddress": "0x4fe84c095c5ec45ab751fc7e39019a7c3d0b3827",
      "function": "setFirstTime(uint256)",
      "arguments": [
        "639036066406145558716205678965173613541607724353"
      ],
      "transaction": {
        "from": "0x6fef5e47148e965c52dabf9086dfa41e886dd541",
        "to": "0x4fe84c095c5ec45ab751fc7e39019a7c3d0b3827",
        "gas": "0xb8d4",
        "value": "0x0",
        "input": "0xf1e026200000000000000000000000006fef5e47148e965c52dabf9086dfa41e886dd541",
        "nonce": "0x67",
        "chainId": "0xaa36a7"
      },
      "additionalContracts": [],
      "isFixedGasLimit": false
    }
  ],
  "receipts": [
    {
      "type": "0x2",
      "status": "0x1",
      "cumulativeGasUsed": "0x155006d",
      "logs": [],
      "logsBloom": "0x00000000000000000000000000000000000000000000000000000000000000000000000000000000000000000000000000000000000000000000000000000000000000000000000000000000000000000000000000000000000000000000000000000000000000000000000000000000000000000000000000000000000000000000000000000000000000000000000000000000000000000000000000000000000000000000000000000000000000000000000000000000000000000000000000000000000000000000000000000000000000000000000000000000000000000000000000000000000000000000000000000000000000000000000000000000",
      "transactionHash": "0x4067d64d237439299a4256a933f7c0a20dfdc5009c38166c4ec8806bf29479f4",
      "transactionIndex": "0xa1",
      "blockHash": "0x0659178998fa6724b2ef25a3da8af671ee3336a4dfe6b2246bb8fe07c0131dd7",
      "blockNumber": "0xaa605e",
      "gasUsed": "0x1c9eb",
      "effectiveGasPrice": "0x45f99e80",
      "from": "0x6fef5e47148e965c52dabf9086dfa41e886dd541",
      "to": null,
      "contractAddress": "0x6f10b8a762cb75c5811653e311dc735ab6ed1716"
    },
    {
      "type": "0x2",
      "status": "0x1",
      "cumulativeGasUsed": "0x155759b",
      "logs": [],
      "logsBloom": "0x00000000000000000000000000000000000000000000000000000000000000000000000000000000000000000000000000000000000000000000000000000000000000000000000000000000000000000000000000000000000000000000000000000000000000000000000000000000000000000000000000000000000000000000000000000000000000000000000000000000000000000000000000000000000000000000000000000000000000000000000000000000000000000000000000000000000000000000000000000000000000000000000000000000000000000000000000000000000000000000000000000000000000000000000000000000",
      "transactionHash": "0xbf1f14d82f3aabc9db35df00d9c69245fa896312c5ec2bce69ce039689f41b4c",
      "transactionIndex": "0xa2",
      "blockHash": "0x0659178998fa6724b2ef25a3da8af671ee3336a4dfe6b2246bb8fe07c0131dd7",
      "blockNumber": "0xaa605e",
      "gasUsed": "0x752e",
      "effectiveGasPrice": "0x45f99e80",
      "from": "0x6fef5e47148e965c52dabf9086dfa41e886dd541",
      "to": "0x4fe84c095c5ec45ab751fc7e39019a7c3d0b3827",
      "contractAddress": null
    },
    {
      "type": "0x2",
      "status": "0x1",
      "cumulativeGasUsed": "0x155f3fc",
      "logs": [],
      "logsBloom": "0x00000000000000000000000000000000000000000000000000000000000000000000000000000000000000000000000000000000000000000000000000000000000000000000000000000000000000000000000000000000000000000000000000000000000000000000000000000000000000000000000000000000000000000000000000000000000000000000000000000000000000000000000000000000000000000000000000000000000000000000000000000000000000000000000000000000000000000000000000000000000000000000000000000000000000000000000000000000000000000000000000000000000000000000000000000000",
      "transactionHash": "0x29e76ce1562b56ed7efefa010de4c24175b58ab550a604239ef0800630fd8667",
      "transactionIndex": "0xa3",
      "blockHash": "0x0659178998fa6724b2ef25a3da8af671ee3336a4dfe6b2246bb8fe07c0131dd7",
      "blockNumber": "0xaa605e",
      "gasUsed": "0x7e61",
      "effectiveGasPrice": "0x45f99e80",
      "from": "0x6fef5e47148e965c52dabf9086dfa41e886dd541",
      "to": "0x4fe84c095c5ec45ab751fc7e39019a7c3d0b3827",
      "contractAddress": null
    }
  ],
  "libraries": [],
  "pending": [],
  "returns": {},
  "timestamp": 1782739873516,
  "chain": 11155111,
  "commit": "a3fda35"
}