{
  "transactions": [
    {
      "hash": "0xc4d877c09b85c7f55d7b2ff2a675b1eead1b8af9ea2e23db473a0b09d510f1a2",
      "transactionType": "CALL",
      "contractName": null,
      "contractAddress": "0x383fb981816de991089809d62533b6911dbbd928",
      "function": "approve(address,uint256)",
      "arguments": [
        "0x6fEf5e47148E965C52dAbf9086dFA41e886DD541",
        "115792089237316195423570985008687907853269984665640564039457584007913129639935"
      ],
      "transaction": {
        "from": "0x6fef5e47148e965c52dabf9086dfa41e886dd541",
        "to": "0x383fb981816de991089809d62533b6911dbbd928",
        "gas": "0x10a30",
        "value": "0x0",
        "input": "0x095ea7b30000000000000000000000006fef5e47148e965c52dabf9086dfa41e886dd541ffffffffffffffffffffffffffffffffffffffffffffffffffffffffffffffff",
        "nonce": "0x61",
        "chainId": "0xaa36a7"
      },
      "additionalContracts": [],
      "isFixedGasLimit": false
    },
    {
      "hash": "0xb05497f688ca4bf71f88b1d48cb672d1575fb8c1a2e9aa0186d615d05adc3640",
      "transactionType": "CALL",
      "contractName": null,
      "contractAddress": "0x383fb981816de991089809d62533b6911dbbd928",
      "function": "transferFrom(address,address,uint256)",
      "arguments": [
        "0x6fEf5e47148E965C52dAbf9086dFA41e886DD541",
        "0x383fB981816dE991089809D62533b6911dBBd928",
        "1000000000000000000000000"
      ],
      "transaction": {
        "from": "0x6fef5e47148e965c52dabf9086dfa41e886dd541",
        "to": "0x383fb981816de991089809d62533b6911dbbd928",
        "gas": "0x11b19",
        "value": "0x0",
        "input": "0x23b872dd0000000000000000000000006fef5e47148e965c52dabf9086dfa41e886dd541000000000000000000000000383fb981816de991089809d62533b6911dbbd92800000000000000000000000000000000000000000000d3c21bcecceda1000000",
        "nonce": "0x62",
        "chainId": "0xaa36a7"
      },
      "additionalContracts": [],
      "isFixedGasLimit": false
    }
  ],
  "receipts": [
    {
      "type": "0x2",
      "status": "0x1",
      "cumulativeGasUsed": "0x1283643",
      "logs": [
        {
          "address": "0x383fb981816de991089809d62533b6911dbbd928",
          "topics": [
            "0x8c5be1e5ebec7d5bd14f71427d1e84f3dd0314c0f7b2291e5b200ac8c7c3b925",
            "0x0000000000000000000000006fef5e47148e965c52dabf9086dfa41e886dd541",
            "0x0000000000000000000000006fef5e47148e965c52dabf9086dfa41e886dd541"
          ],
          "data": "0xffffffffffffffffffffffffffffffffffffffffffffffffffffffffffffffff",
          "blockHash": "0x3916b0d6546aa2404113c4073556cb893baef00ead6b70862b63fd2392b9f081",
          "blockNumber": "0xaa5e13",
          "blockTimestamp": "0x6a425810",
          "transactionHash": "0xc4d877c09b85c7f55d7b2ff2a675b1eead1b8af9ea2e23db473a0b09d510f1a2",
          "transactionIndex": "0x8b",
          "logIndex": "0x361",
          "removed": false
        }
      ],
      "logsBloom": "0x00000000000000000000000000002000000000000000000000000000000000000000000000000008000000000000000000000004000000000000000020200000000000000000000000000000000000000400000000000000000000000000000000000000000000000000000000000000000000000000000000000000000000000000000000000010000000000000000000000000000000000000000000000000020000000000000000000000000000000000000000000000000000000000000000000000000000000000000000000000000000000000000000000000000000000010000000000000000000000000000000000000000000000000000000000000",
      "transactionHash": "0xc4d877c09b85c7f55d7b2ff2a675b1eead1b8af9ea2e23db473a0b09d510f1a2",
      "transactionIndex": "0x8b",
      "blockHash": "0x3916b0d6546aa2404113c4073556cb893baef00ead6b70862b63fd2392b9f081",
      "blockNumber": "0xaa5e13",
      "gasUsed": "0xb603",
      "effectiveGasPrice": "0x3d29f366",
      "from": "0x6fef5e47148e965c52dabf9086dfa41e886dd541",
      "to": "0x383fb981816de991089809d62533b6911dbbd928",
      "contractAddress": null
    },
    {
      "type": "0x2",
      "status": "0x1",
      "cumulativeGasUsed": "0x12fa28e",
      "logs": [
        {
          "address": "0x383fb981816de991089809d62533b6911dbbd928",
          "topics": [
            "0xddf252ad1be2c89b69c2b068fc378daa952ba7f163c4a11628f55a4df523b3ef",
            "0x0000000000000000000000006fef5e47148e965c52dabf9086dfa41e886dd541",
            "0x000000000000000000000000383fb981816de991089809d62533b6911dbbd928"
          ],
          "data": "0x00000000000000000000000000000000000000000000d3c21bcecceda1000000",
          "blockHash": "0x3916b0d6546aa2404113c4073556cb893baef00ead6b70862b63fd2392b9f081",
          "blockNumber": "0xaa5e13",
          "blockTimestamp": "0x6a425810",
          "transactionHash": "0xb05497f688ca4bf71f88b1d48cb672d1575fb8c1a2e9aa0186d615d05adc3640",
          "transactionIndex": "0x91",
          "logIndex": "0x36b",
          "removed": false
        }
      ],
      "logsBloom": "0x00000000000000000000000000002000000000000000000000000000000000000000000000000008000000000000000000000004000000000000000020000000000000000001000000000008000000000400000000000000000000000040000000000000000000000000000000000000000000000000000000000010000000000000000000000010000000000000000000000000000000000000000000000000000000000000000000000000000000000000000000000000000000000000000000000002000000000000000000000000800000000000000000000000000000000000000000000000000000000000000000000000000000000000000000000000",
      "transactionHash": "0xb05497f688ca4bf71f88b1d48cb672d1575fb8c1a2e9aa0186d615d05adc3640",
      "transactionIndex": "0x91",
      "blockHash": "0x3916b0d6546aa2404113c4073556cb893baef00ead6b70862b63fd2392b9f081",
      "blockNumber": "0xaa5e13",
      "gasUsed": "0xc193",
      "effectiveGasPrice": "0x3d29f366",
      "from": "0x6fef5e47148e965c52dabf9086dfa41e886dd541",
      "to": "0x383fb981816de991089809d62533b6911dbbd928",
      "contractAddress": null
    }
  ],
  "libraries": [],
  "pending": [],
  "returns": {},
  "timestamp": 1782732819623,
  "chain": 11155111,
  "commit": "922c0ad"
}