{
  "transactions": [
    {
      "hash": "0x1096d908cd74d4c184a387c367ea8d9a0242709a5b7f3c064cedb58dee08025d",
      "transactionType": "CALL",
      "contractName": null,
      "contractAddress": "0xb5b1f4a685bbcc9f7ed929a8bb065d04b1a4229a",
      "function": "destroy(address)",
      "arguments": [
        "0x6fEf5e47148E965C52dAbf9086dFA41e886DD541"
      ],
      "transaction": {
        "from": "0x6fef5e47148e965c52dabf9086dfa41e886dd541",
        "to": "0xb5b1f4a685bbcc9f7ed929a8bb065d04b1a4229a",
        "gas": "0x986e",
        "value": "0x0",
        "input": "0x00f55d9d0000000000000000000000006fef5e47148e965c52dabf9086dfa41e886dd541",
        "nonce": "0x6a",
        "chainId": "0xaa36a7"
      },
      "additionalContracts": [],
      "isFixedGasLimit": false
    }
  ],
  "receipts": [
    {
      "type": "0x2",
      "status": "0x1",
      "cumulativeGasUsed": "0xe34cab",
      "logs": [],
      "logsBloom": "0x00000000000000000000000000000000000000000000000000000000000000000000000000000000000000000000000000000000000000000000000000000000000000000000000000000000000000000000000000000000000000000000000000000000000000000000000000000000000000000000000000000000000000000000000000000000000000000000000000000000000000000000000000000000000000000000000000000000000000000000000000000000000000000000000000000000000000000000000000000000000000000000000000000000000000000000000000000000000000000000000000000000000000000000000000000000",
      "transactionHash": "0x1096d908cd74d4c184a387c367ea8d9a0242709a5b7f3c064cedb58dee08025d",
      "transactionIndex": "0x73",
      "blockHash": "0xeb5b2e111bd9653789f4b88ca6775808ce9c9a3ef466401db799e73574a20858",
      "blockNumber": "0xaa62f4",
      "gasUsed": "0x683a",
      "effectiveGasPrice": "0x3bc8c423",
      "from": "0x6fef5e47148e965c52dabf9086dfa41e886dd541",
      "to": "0xb5b1f4a685bbcc9f7ed929a8bb065d04b1a4229a",
      "contractAddress": null
    }
  ],
  "libraries": [],
  "pending": [],
  "returns": {},
  "timestamp": 1782747852752,
  "chain": 11155111,
  "commit": "70eafe6"
}