{
  "transactions": [
    {
      "hash": null,
      "transactionType": "CREATE",
      "contractName": "Attacker",
      "contractAddress": "0x6f10b8a762cb75c5811653e311dc735ab6ed1716",
      "function": null,
      "arguments": null,
      "transaction": {
        "from": "0x6fef5e47148e965c52dabf9086dfa41e886dd541",
        "to": null,
        "gas": "0x2534b",
        "value": "0x0",
        "input": "0x6080604052348015600e575f5ffd5b506101278061001c5f395ff3fe6080604052348015600e575f5ffd5b50600436106026575f3560e01c80633beb26c414602a575b5f5ffd5b60406004803603810190603c919060cb565b6042565b005b736fef5e47148e965c52dabf9086dfa41e886dd54160025f6101000a81548173ffffffffffffffffffffffffffffffffffffffff021916908373ffffffffffffffffffffffffffffffffffffffff16021790555050565b5f5ffd5b5f819050919050565b60ad81609d565b811460b6575f5ffd5b50565b5f8135905060c58160a6565b92915050565b5f6020828403121560dd5760dc6099565b5b5f60e88482850160b9565b9150509291505056fea2646970667358221220e841460b1601e1990066e3c5f1368dbb570b7f1977c729dae80e495c1627b9eb64736f6c63430008230033",
        "nonce": "0x65",
        "chainId": "0xaa36a7"
      },
      "additionalContracts": [],
      "isFixedGasLimit": false
    },
    {
      "hash": null,
      "transactionType": "CALL",
      "contractName": null,
      "contractAddress": "0x4fe84c095c5ec45ab751fc7e39019a7c3d0b3827",
      "function": "setFirstTime(uint256)",
      "arguments": [
        "634070873103710165381276445997786060918958659350"
      ],
      "transaction": {
        "from": "0x6fef5e47148e965c52dabf9086dfa41e886dd541",
        "to": "0x4fe84c095c5ec45ab751fc7e39019a7c3d0b3827",
        "gas": "0xa1d9",
        "value": "0x0",
        "input": "0xf1e026200000000000000000000000006f10b8a762cb75c5811653e311dc735ab6ed1716",
        "nonce": "0x66",
        "chainId": "0xaa36a7"
      },
      "additionalContracts": [],
      "isFixedGasLimit": false
    },
    {
      "hash": null,
      "transactionType": "CALL",
      "contractName": null,
      "contractAddress": "0x4fe84c095c5ec45ab751fc7e39019a7c3d0b3827",
      "function": "setFirstTime(uint256)",
      "arguments": [
        "639036066406145558716205678965173613541607724353"
      ],
      "transaction": {
        "from": "0x6fef5e47148e965c52dabf9086dfa41e886dd541",
        "to": "0x4fe84c095c5ec45ab751fc7e39019a7c3d0b3827",
        "gas": "0xb8d4",
        "value": "0x0",
        "input": "0xf1e026200000000000000000000000006fef5e47148e965c52dabf9086dfa41e886dd541",
        "nonce": "0x67",
        "chainId": "0xaa36a7"
      },
      "additionalContracts": [],
      "isFixedGasLimit": false
    }
  ],
  "receipts": [],
  "libraries": [],
  "pending": [],
  "returns": {},
  "timestamp": 1782739842063,
  "chain": 11155111,
  "commit": "a3fda35"
}