{
  "transactions": [
    {
      "hash": "0x78d52bf5c27fb276eaae4a9f86b5fdbbaa33d692361352f5e1a5ac601897c3c5",
      "transactionType": "CREATE",
      "contractName": "Attacker",
      "contractAddress": "0x904ed7b26bd1d9d664691cd1266ff72ce6d1fdc9",
      "function": null,
      "arguments": null,
      "transaction": {
        "from": "0x6fef5e47148e965c52dabf9086dfa41e886dd541",
        "to": null,
        "gas": "0x241c3",
        "value": "0x0",
        "input": "0x6080604052348015600e575f5ffd5b506101178061001c5f395ff3fe608060405260043610601e575f3560e01c8063d018db3e146028576024565b36602457005b5f5ffd5b3480156032575f5ffd5b50604960048036038101906045919060bb565b604b565b005b8073ffffffffffffffffffffffffffffffffffffffff16ff5b5f5ffd5b5f73ffffffffffffffffffffffffffffffffffffffff82169050919050565b5f608f826068565b9050919050565b609d816087565b811460a6575f5ffd5b50565b5f8135905060b5816096565b92915050565b5f6020828403121560cd5760cc6064565b5b5f60d88482850160a9565b9150509291505056fea26469706673582212207b5bbb1d22635f611b4dca833c6c9fae555f3f07805d1b9c37761a4ae64390a064736f6c63430008230033",
        "nonce": "0x38",
        "chainId": "0xaa36a7"
      },
      "additionalContracts": [],
      "isFixedGasLimit": false
    },
    {
      "hash": "0xacf950b3e870bdb7925bcae6adb7fdd6fd819ccd033eac882c8af4be2480967b",
      "transactionType": "CALL",
      "contractName": null,
      "contractAddress": "0x904ed7b26bd1d9d664691cd1266ff72ce6d1fdc9",
      "function": null,
      "arguments": null,
      "transaction": {
        "from": "0x6fef5e47148e965c52dabf9086dfa41e886dd541",
        "to": "0x904ed7b26bd1d9d664691cd1266ff72ce6d1fdc9",
        "gas": "0x7199",
        "value": "0x5af3107a4000",
        "input": "0x",
        "nonce": "0x39",
        "chainId": "0xaa36a7"
      },
      "additionalContracts": [],
      "isFixedGasLimit": false
    },
    {
      "hash": "0xf4af2788bc4e6e0903a2c476960487fc602ef5b2d4d49e4dcfe4c674bec54926",
      "transactionType": "CALL",
      "contractName": "Attacker",
      "contractAddress": "0x904ed7b26bd1d9d664691cd1266ff72ce6d1fdc9",
      "function": "attack(address)",
      "arguments": [
        "0x4b241Ad3bce67725776F333Ef013F27C7ad7CfEf"
      ],
      "transaction": {
        "from": "0x6fef5e47148e965c52dabf9086dfa41e886dd541",
        "to": "0x904ed7b26bd1d9d664691cd1266ff72ce6d1fdc9",
        "gas": "0xa848",
        "value": "0x0",
        "input": "0xd018db3e0000000000000000000000004b241ad3bce67725776f333ef013f27c7ad7cfef",
        "nonce": "0x3a",
        "chainId": "0xaa36a7"
      },
      "additionalContracts": [],
      "isFixedGasLimit": false
    }
  ],
  "receipts": [
    {
      "type": "0x2",
      "status": "0x1",
      "cumulativeGasUsed": "0x165ef6d",
      "logs": [],
      "logsBloom": "0x00000000000000000000000000000000000000000000000000000000000000000000000000000000000000000000000000000000000000000000000000000000000000000000000000000000000000000000000000000000000000000000000000000000000000000000000000000000000000000000000000000000000000000000000000000000000000000000000000000000000000000000000000000000000000000000000000000000000000000000000000000000000000000000000000000000000000000000000000000000000000000000000000000000000000000000000000000000000000000000000000000000000000000000000000000000",
      "transactionHash": "0xf4af2788bc4e6e0903a2c476960487fc602ef5b2d4d49e4dcfe4c674bec54926",
      "transactionIndex": "0xac",
      "blockHash": "0x59807e904145f00b4c6244a9db249a820a5ec8903d5dc5975db644d6c67f450e",
      "blockNumber": "0xaa1860",
      "gasUsed": "0x1bc6f",
      "effectiveGasPrice": "0x42bc5513",
      "from": "0x6fef5e47148e965c52dabf9086dfa41e886dd541",
      "to": null,
      "contractAddress": "0x904ed7b26bd1d9d664691cd1266ff72ce6d1fdc9"
    },
    {
      "type": "0x2",
      "status": "0x1",
      "cumulativeGasUsed": "0x16641ac",
      "logs": [],
      "logsBloom": "0x00000000000000000000000000000000000000000000000000000000000000000000000000000000000000000000000000000000000000000000000000000000000000000000000000000000000000000000000000000000000000000000000000000000000000000000000000000000000000000000000000000000000000000000000000000000000000000000000000000000000000000000000000000000000000000000000000000000000000000000000000000000000000000000000000000000000000000000000000000000000000000000000000000000000000000000000000000000000000000000000000000000000000000000000000000000",
      "transactionHash": "0x78d52bf5c27fb276eaae4a9f86b5fdbbaa33d692361352f5e1a5ac601897c3c5",
      "transactionIndex": "0xad",
      "blockHash": "0x59807e904145f00b4c6244a9db249a820a5ec8903d5dc5975db644d6c67f450e",
      "blockNumber": "0xaa1860",
      "gasUsed": "0x523f",
      "effectiveGasPrice": "0x42bc5513",
      "from": "0x6fef5e47148e965c52dabf9086dfa41e886dd541",
      "to": "0x904ed7b26bd1d9d664691cd1266ff72ce6d1fdc9",
      "contractAddress": null
    },
    {
      "type": "0x2",
      "status": "0x1",
      "cumulativeGasUsed": "0x166b4bd",
      "logs": [],
      "logsBloom": "0x00000000000000000000000000000000000000000000000000000000000000000000000000000000000000000000000000000000000000000000000000000000000000000000000000000000000000000000000000000000000000000000000000000000000000000000000000000000000000000000000000000000000000000000000000000000000000000000000000000000000000000000000000000000000000000000000000000000000000000000000000000000000000000000000000000000000000000000000000000000000000000000000000000000000000000000000000000000000000000000000000000000000000000000000000000000",
      "transactionHash": "0xacf950b3e870bdb7925bcae6adb7fdd6fd819ccd033eac882c8af4be2480967b",
      "transactionIndex": "0xae",
      "blockHash": "0x59807e904145f00b4c6244a9db249a820a5ec8903d5dc5975db644d6c67f450e",
      "blockNumber": "0xaa1860",
      "gasUsed": "0x7311",
      "effectiveGasPrice": "0x42bc5513",
      "from": "0x6fef5e47148e965c52dabf9086dfa41e886dd541",
      "to": "0x904ed7b26bd1d9d664691cd1266ff72ce6d1fdc9",
      "contractAddress": null
    }
  ],
  "libraries": [],
  "pending": [],
  "returns": {},
  "timestamp": 1782518378662,
  "chain": 11155111,
  "commit": "ad8da62"
}